:020000040800F2
:100000000000032075020008710200087102000858
:10001000710200087102000871020008000000006F
:100020000000000000000000000000007102000855
:10003000710200080000000071020008710200084F
:1000400071020008710200087102000871020008C4
:1000500071020008710200087102000871020008B4
:1000600071020008710200087102000871020008A4
:100070007102000871020008710200087102000894
:100080007102000871020008710200087102000884
:100090007102000871020008710200087102000874
:1000A0007102000871020008710200087102000864
:1000B0007102000871020008710200087102000854
:1000C0007102000871020008710200087102000844
:1000D0007102000871020008710200087102000834
:1000E0007102000871020008710200087102000824
:1000F0007102000871020008710200087102000814
:100100007102000871020008710200087102000803
:1001100071020008710200087102000871020008F3
:1001200071020008710200087102000871020008E3
:0C01300071020008710200087102000852
:10013C00844641EA000313F003036DD1403A41D3E6
:10014C0051F8043B40F8043B51F8043B40F8043BA5
:10015C0051F8043B40F8043B51F8043B40F8043B95
:10016C0051F8043B40F8043B51F8043B40F8043B85
:10017C0051F8043B40F8043B51F8043B40F8043B75
:10018C0051F8043B40F8043B51F8043B40F8043B65
:10019C0051F8043B40F8043B51F8043B40F8043B55
:1001AC0051F8043B40F8043B51F8043B40F8043B45
:1001BC0051F8043B40F8043B51F8043B40F8043B35
:1001CC00403ABDD2303211D351F8043B40F8043BD5
:1001DC0051F8043B40F8043B51F8043B40F8043B15
:1001EC0051F8043B40F8043B103AEDD20C3205D3E5
:1001FC0051F8043B40F8043B043AF9D2043208D0DD
:10020C00D2071CBF11F8013B00F8013B01D30B884E
:10021C0003806046704700BF082A13D38B078DD02C
:10022C0010F003038AD0C3F10403D21ADB071CBFFE
:10023C0011F8013B00F8013B80D331F8023B20F868
:10024C00023B7BE7043AD9D3013A11F8013B00F8A1
:10025C00013BF9D20B7803704B7843708B78837029
:10026C0060467047FEE700BF0E480F4A904208B543
:10027C0007D2013A121A22F003020C490432FFF79A
:10028C0057FF0B480B4A904207D2013A121A22F040
:10029C0003020432002100F0BDFB00F00DF800F069
:1002AC005DF9FEE70000002000000020C00F0008F0
:1002BC00000000208C030020164B10B4DA6C42F0C6
:1002CC000102DA641A6E83B0642142F480421A6629
:1002DC000191019B5A1E0192002BFAD14FF09043D1
:1002EC000D491A6822F470121A601A6842F420122E
:1002FC001A605A6A22F47F625A625A6A23240D20C9
:10030C0042F4EE625A62CC60086003B05DF8044BB4
:10031C00704700BF0010024000380140024AD36908
:10032C001B06FCD59062704700380140034AD36924
:10033C009B06FCD5506AC0B2704700BF0038014024
:10034C000378ABB10B4A10B40D240A2B0BD010F868
:10035C00011BD3691B06FCD591620378002BF4D1E9
:10036C005DF8044B7047D3691906FCD59462EEE72F
:10037C00704700BF00380140344B35491B68354A83
:10038C00354810B5A1FB031C4FEA9C1CA2FB0C13B7
:10039C005909A2FB0123314C314A9AB05B09CDE9D2
:1003AC000124A0FB0342D208A0FB024E4FEADE0E52
:1003BC000EEB8E0EA2EB4E0402EB8202A3EB420E6E
:1003CC00C3EB0312A1EB8202A0FB0232D20804F1B0
:1003DC0030038DF80E3030320EF130038DF81120D1
:1003EC008DF80F30A0FB0123DB0803EB8303A1EB9B
:1003FC004302C1EB0113ACEB8303A0FB0313A0FB83
:10040C000C10C008DB0800EB800030338DF8143082
:10041C00ACEB400C00233A2430320CF1300C40F69B
:10042C000A218DF8183001A842F23A038DF81040D9
:10043C008DF812208DF813408DF815C0ADF81610FC
:10044C00ADF80C3000F04EFA1AB010BD00000020D0
:10045C00D34D621089888888CDCCCCCC74696D65FD
:10046C000A0A557010B51648164C00F03BFA16489F
:10047C0000F038FA154800F035FA204600F032FA50
:10048C00134800F02FFA134800F02CFA124800F031
:10049C0029FA124800F026FA204600F023FA1048F8
:1004AC0000F020FA204600F01DFA0E4800F01AFA6F
:1004BC000D4800F017FABDE8104000F0DFB900BF9E
:1004CC00C40A0008600B0008F80A00082C0B00088E
:1004DC00940B0008C80B0008FC0B0008300C00083B
:1004EC00640C0008980C0008D00C000808B5FFF745
:1004FC00B9FF0138082806D8DFE800F01C14110EEB
:10050C00050505050900104800F0ECF9EFE7BDE81A
:10051C0008400E4800F0E6B9FFF72EFFE7E700F0C1
:10052C0053F9E4E70A4800F0DDF900F0A7F900F010
:10053C0023F9DCE700F004F901300648E4D1064861
:10054C0000F0D0F9D3E700BF580D00084C0D00089F
:10055C002C0D00081C0D0008FC0C000808B500F060
:10056C008DF8FFF7C3FF00F099F8002008BD00BF1D
:10057C00404B70B553F82040002C78D03E4B0130E6
:10058C00A3FB0052D20802EB8202A0EB42004FF018
:10059C00090C3030087081F801C02578A3FB052EBA
:1005AC004FEADE0EA3FB0E62D20802EB8202AEEB28
:1005BC0042020EEB8E0EA5EB4E053A203032303552
:1005CC008A700871CD70657881F807C0A3FB052E81
:1005DC004FEADE0EA3FB0E62D20802EB8202AEEBF8
:1005EC0042020EEB8E0EA5EB4E05303530328D717E
:1005FC004A7194F802E08872A3FB0E20C008A3FB9A
:10060C000052D20802EB8202A0EB420200EB800007
:10061C00AEEB400E30320EF1300E0A7281F809E06A
:10062C0094F803E081F80DC0A3FB0E20C008A3FBD7
:10063C000052D20802EB8202A0EB420200EB8000D7
:10064C00AEEB400E30320EF1300E81F80CE0CA7277
:10065C002279A3FB0243DB0803EB8303A2EB4302E7
:10066C000A20303200238A73C8730B7470BD0C706F
:10067C0070BD00BF08000020CDCCCCCC08B54FF429
:10068C00C8720448002100F0C5F9034B00221A601F
:10069C0008BD00BF080000200400002008B54FF47E
:1006AC00C8720448002100F0B5F9034B00221A600F
:1006BC0008BD00BF0800002004000020194B70B5D5
:1006CC001C68632C2ADC184E184804EB8404A5190A
:1006DC00002333512B7100F005F900F0CFF80346DD
:1006EC001348335500F0FEF800F0C8F803461148E3
:1006FC006B7000F0F7F800F0C1F803460E48AB70D1
:10070C0000F0F0F800F0BAF803460C48EB7000F07B
:10071C00E9F800F0B3F82871284670BD002528468A
:10072C0070BD00BF0400002098010020780D000867
:10073C00A00D0008C80D0008F00D0008180E0008E8
:10074C0010B5FFF7BBFF70B1084A1368632B06D8CE
:10075C00074C591C44F823001160002010BD0548BB
:10076C0000F0C0F8F9E74FF0FF3010BD0400002096
:10077C0008000020400E000863281CD870B50F4DEF
:10078C002C68844210DD013CA04212DA0C4E83002E
:10079C00221A191D92003144F01800F0BBF8002306
:1007AC0046F824302C6070BDBDE87040054800F060
:1007BC0099B8034EF3E7034800F094B80400002006
:1007CC0008000020680E000870B51148114D9AB051
:1007DC0000F088F8104800F085F82B68002B12DD2B
:1007EC000024264608E0FFF7C3FE01A800F07AF8C3
:1007FC002B680134A34206DD632C01A92046F2DDEF
:10080C008DF80460F1E7054800F06CF81AB070BD83
:10081C00800E000804000020980E0008AC0E0008A2
:10082C000378202B024600F10100F9D0092BF7D0F8
:10083C002D2B18D02B2B1BD04FF0010CA3F130011A
:10084C00CBB2092B4FF0000017D812F8013F00EB88
:10085C00800001EB4000A3F13001CBB2092BF4D99D
:10086C000CFB00F0704753784FF0FF3C0246E5E775
:10087C0053784FF0010C0246E0E77047F0B59BB09F
:10088C00164F01AE00250EE00A2817D00D2815D002
:10089C00002813DB3B5D01355B0748BF3470632DCB
:1008AC0006F101060DD0FFF741FDA0F120035E2BF0
:1008BC000446E9D8C0B2FFF731FDEBE70848FFF773
:1008CC003FFD05F168030DEB030501A8002305F8B6
:1008DC00643CFFF7A5FF1BB0F0BD00BFB50E0008D0
:1008EC00B00E000838B5037883B10446002506E045
:1008FC0014F8010BFFF712FD237801353BB10A2BDD
:10090C00F6D10D200135FFF709FDF1E71D4628460C
:10091C0038BD00BF88420ED98B1883420BD900EB2F
:10092C00020C002A6ED0624613F801CD02F801CDFC
:10093C009942F9D170470F2A0FD8034602F1FF3CB8
:10094C00002A5FD00CF1010C013B8C4411F8012BF7
:10095C0003F8012F6145F9D1704740EA01039B0769
:10096C0051D1A2F1100370B501F1200C23F00F0549
:10097C0001F1100E00F11004AC441B095EF8105C80
:10098C0044F8105C5EF80C5C44F80C5C5EF8085C97
:10099C0044F8085C5EF8045C44F8045C0EF1100E3C
:1009AC00E64504F11004E9D1013312F00C0F01EB10
:1009BC00031102F00F0400EB031328D0043C24F0C5
:1009CC0003064FEA940C1E441C1F8E465EF8045B13
:1009DC0044F8045FB442F9D10CF1010402F00302B3
:1009EC0003EB840301EB840102F1FF3C4AB10CF1EF
:1009FC00010C013B8C4411F8012B03F8012F6145CC
:100A0C00F9D170BD704702F1FF3C03469AE72246CC
:100A1C00EAE700BF830730B547D0541E002A3ED00A
:100A2C00CAB2034601E0013C39D303F8012B9D0700
:100A3C00F9D1032C2CD9CDB205EB05250F2C05EBE8
:100A4C00054535D9A4F1100222F00F0C03F1100E5C
:100A5C00E6444FEA121C1A46C2E90055C2E9025597
:100A6C0010327245F8D10CF1010214F00C0F03EBAB
:100A7C00021204F00F0C13D0ACF1040323F00303A7
:100A8C000433134442F8045B9342FBD10CF003048F
:100A9C002CB1C9B21C4403F8011BA342FBD130BDDD
:100AAC0064461346002CF4D1F9E703461446C0E71C
:080ABC001A46A446E0E700BF62
:100AC4002A2A2A2A2A2A2A2A2A2A2A2A2A2A2A2A82
:100AD4002A2A2A2A2A2A2A2A2A2A2A2A2A2A2A2A72
:100AE4002A2A2A2A2A2A2A2A2A2A2A2A2A2A2A2A62
:100AF4002A2A0A002A20202020202020202020200A
:100B04002020202020202054696D6572204D656EC0
:100B1400752020202020202020202020202020207C
:100B240020202020202A0A002A202D2B2D2B2D2B9B
:100B34002D2B2D2B2D2B2D2B2D2B2D2B2D2B2D2BF1
:100B44002D2B2D2B2D2B2D2B2D2B2D2B2D2B2D2BE1
:100B54002D2B2D2B2D2B2D2B202A0A002A20202053
:100B64002020202020202020202020202020202081
:100B74002020202020202020202020202020202071
:100B8400202020202020202020202020202A0A008D
:100B94002A2031292041646420612074696D6572C2
:100BA4002020202020202020202020202020202041
:100BB4002020202020202020202020202020202031
:100BC400202A0A002A2032292052656D6F7665207A
:100BD400612074696D65722020202020202020204F
:100BE4002020202020202020202020202020202001
:100BF40020202020202A0A002A203329204C69732F
:100C04007420616C6C2074696D65727320202020DF
:100C140020202020202020202020202020202020D0
:100C24002020202020202020202A0A002A203429C5
:100C34002053686F772074696D6520202020202060
:100C440020202020202020202020202020202020A0
:100C5400202020202020202020202020202A0A00BC
:100C64002A2039292045786974202020202020203A
:100C74002020202020202020202020202020202070
:100C84002020202020202020202020202020202060
:100C9400202A0A002A2A2A2A2A2A2A2A2A2A2A2A04
:100CA4002A2A2A2A2A2A2A2A2A2A2A2A2A2A2A2AA0
:100CB4002A2A2A2A2A2A2A2A2A2A2A2A2A2A2A2A90
:100CC4002A2A2A2A2A2A0A0A00000000456E746584
:100CD400722073656C656374696F6E2C2077686528
:100CE4006E20646F6E65207072657373203C656E50
:100CF4007465723E203E20000A4572726F72202E87
:100D04002E2E2074696D6572206E6F742061646488
:100D14006564210A000000000A54696D657220614F
:100D240064646564210A0000576869636820746913
:100D34006D65722073686F756C642049206E756BE5
:100D4400653F203E200000000A476F6F64627965AA
:100D54000A0A00000A496E76616C69642041637472
:100D6400696F6E202E2E2E2074727920616761695E
:100D74006E210A00506C6561736520656E7465723E
:100D84002074686520737461727420686F757220B2
:100D94005B302D32335D203E20000000506C6561D5
:100DA400736520656E746572207468652073746160
:100DB4007274206D696E757465205B302D35395DF4
:100DC400203E20000A506C6561736520656E746571
:100DD400722074686520656E6420686F7572205B8C
:100DE400302D32335D203E20000000000A506C6537
:100DF40061736520656E7465722074686520656E24
:100E040064206D696E757465205B302D35395D2005
:100E14003E2000000A506C6561736520656E746540
:100E24007220746865206368616E6E656C20746FEF
:100E3400207265636F7264203E2000000A416C6C6E
:100E44002074696D6572732075736564202E2E2E6F
:100E54002074696D6572206E6F74206164646564CA
:100E64000A000000496E76616C69642074696D65DE
:100E74007220696E6465780A000000000A0A4375EE
:100E84007272656E74205365742054696D65727353
:100E9400000000000A5265632309537461727409E7
:100EA400456E640943680A000A0A00000D0A00003E
:100EB4000020202020202020202028282828282026
:100EC400202020202020202020202020202020201E
:100ED4002088101010101010101010101010101086
:100EE4001004040404040404040404101010101076
:100EF4001010414141414141010101010101010140
:100F04000101010101010101010101011010101091
:100F14001010424242424242020202020202020211
:100F24000202020202020202020202021010101065
:100F3400200000000000000000000000000000008D
:100F4400000000000000000000000000000000009D
:100F5400000000000000000000000000000000008D
:100F6400000000000000000000000000000000007D
:100F7400000000000000000000000000000000006D
:100F8400000000000000000000000000000000005D
:100F9400000000000000000000000000000000004D
:100FA400000000000000000000000000000000003D
:040FB4000000000039
:080FB80084F1FF7F010000003D
:040000050800027578
:00000001FF
